:03000000020800F3
:0C080000787FE4F6D8FD75811D020847E2
:0D09AF0048656C6C6F20576F726C642100FE
:0F099F000A083F065B4F666D7D077F6F011200F0
:10097900759850758920758DFD758BFDD28ED2AC19
:03098900D2AF22C8
:060922008B1B8A1C891DDD
:10092800E4FFAB1BAA1CA91D8F827583001208CF98
:0C093800600AF5993099FDC2990F80E625
:010944002290
:050945001209627F01B0
:10094A00AD071FED6011E4FEEEC3940550F2E4FD1D
:07095A000DBDDCFC0E80F175
:010961002273
:10096200C2A6E4FEC2A7EF3392A5EF25E0FFD2A70D
:060972000EBE08F0D2A643
:01097800225C
:1008FC00C284AF17120945D284C285AF18120945BC
:10090C00D285C286AF19120945D286C287AF1A1298
:06091C000945D28780DAD4
:0300230002088C44
:0D088C00C0E0C0D075D000C000C006C0079D
:1008990030980DE51254032413F8A6990512C2984D
:1008A900E51254037015FF74132FF8E624D8F8E6FF
:0B08B900FE74172FF8A6060FBF04EC1A
:0B08C400D007D006D000D0D0D0E0322A
:10098C001209797BFF7A0979AF1209221208FCE46B
:03099C00FEFF2239
:10080C0002098CE493A3F8E493A34003F68001F26D
:10081C0008DFF48029E493A3F85407240CC8C333ED
:10082C00C4540F4420C8834004F456800146F6DFBC
:10083C00E4800B010204081020408090099FE47EA4
:10084C00019360BCA3FF543F30E509541FFEE493B1
:10085C00A360010ECF54C025E060A840B8E493A378
:10086C00FAE493A3F8E493A3C8C582C8CAC583CAA3
:10087C00F0A3C8C582C8CAC583CADFE9DEE780BE5B
:0109AE000048
:1008CF00BB010CE58229F582E5833AF583E02250DE
:1008DF0006E92582F8E622BBFE06E92582F8E22228
:0D08EF00E58229F582E5833AF583E4932242
:00000001FF
